{
  "_format": "hh-sol-artifact-1",
  "contractName": "IPRegistry",
  "sourceName": "contracts/IPRegistry.sol",
  "abi": [
    {
      "anonymous": false,
      "inputs": [
        {
          "indexed": true,
          "internalType": "string",
          "name": "ipHash",
          "type": "string"
        },
        {
          "indexed": true,
          "internalType": "address",
          "name": "owner",
          "type": "address"
        },
        {
          "indexed": false,
          "internalType": "uint256",
          "name": "timestamp",
          "type": "uint256"
        }
      ],
      "name": "AssetRegistered",
      "type": "event"
    },
    {
      "inputs": [
        {
          "internalType": "string",
          "name": "",
          "type": "string"
        }
      ],
      "name": "assets",
      "outputs": [
        {
          "internalType": "string",
          "name": "ipHash",
          "type": "string"
        },
        {
          "internalType": "address",
          "name": "owner",
          "type": "address"
        },
        {
          "internalType": "uint256",
          "name": "timestamp",
          "type": "uint256"
        },
        {
          "internalType": "string",
          "name": "metadataURI",
          "type": "string"
        }
      ],
      "stateMutability": "view",
      "type": "function"
    },
    {
      "inputs": [
        {
          "internalType": "string",
          "name": "",
          "type": "string"
        }
      ],
      "name": "hashExists",
      "outputs": [
        {
          "internalType": "bool",
          "name": "",
          "type": "bool"
        }
      ],
      "stateMutability": "view",
      "type": "function"
    },
    {
      "inputs": [
        {
          "internalType": "string",
          "name": "_ipHash",
          "type": "string"
        },
        {
          "internalType": "string",
          "name": "_metadataURI",
          "type": "string"
        }
      ],
      "name": "registerIP",
      "outputs": [],
      "stateMutability": "nonpayable",
      "type": "function"
    },
    {
      "inputs": [
        {
          "internalType": "string",
          "name": "_ipHash",
          "type": "string"
        }
      ],
      "name": "verifyIP",
      "outputs": [
        {
          "internalType": "address",
          "name": "",
          "type": "address"
        },
        {
          "internalType": "uint256",
          "name": "",
          "type": "uint256"
        },
        {
          "internalType": "string",
          "name": "",
          "type": "string"
        }
      ],
      "stateMutability": "view",
      "type": "function"
    }
  ],
  "bytecode": "0x608060405234801561001057600080fd5b50610f05806100206000396000f3fe608060405234801561001057600080fd5b506004361061004c5760003560e01c806329ccb49314610051578063859362281461006d5780639871e510146100a0578063ade432d4146100d0575b600080fd5b61006b60048036038101906100669190610824565b610102565b005b6100876004803603810190610082919061089c565b6102e1565b60405161009794939291906109be565b60405180910390f35b6100ba60048036038101906100b5919061089c565b610457565b6040516100c79190610a2c565b60405180910390f35b6100ea60048036038101906100e5919061089c565b61048d565b6040516100f993929190610a47565b60405180910390f35b6001826040516101129190610ac1565b908152602001604051809103902060009054906101000a900460ff161561016e576040517f08c379a000000000000000000000000000000000000000000000000000000000815260040161016590610b4a565b60405180910390fd5b60405180608001604052808381526020013373ffffffffffffffffffffffffffffffffffffffff168152602001428152602001828152506000836040516101b59190610ac1565b908152602001604051809103902060008201518160000190816101d89190610d76565b5060208201518160010160006101000a81548173ffffffffffffffffffffffffffffffffffffffff021916908373ffffffffffffffffffffffffffffffffffffffff16021790555060408201518160020155606082015181600301908161023f9190610d76565b50905050600180836040516102549190610ac1565b908152602001604051809103902060006101000a81548160ff0219169083151502179055503373ffffffffffffffffffffffffffffffffffffffff168260405161029e9190610ac1565b60405180910390207f35b4c8ffa6a5625ea730e195bb6ded2fbf525563852e5c4268af625e3553ab29426040516102d59190610e48565b60405180910390a35050565b60008180516020810182018051848252602083016020850120818352809550505050505060009150905080600001805461031a90610b99565b80601f016020809104026020016040519081016040528092919081815260200182805461034690610b99565b80156103935780601f1061036857610100808354040283529160200191610393565b820191906000526020600020905b81548152906001019060200180831161037657829003601f168201915b5050505050908060010160009054906101000a900473ffffffffffffffffffffffffffffffffffffffff16908060020154908060030180546103d490610b99565b80601f016020809104026020016040519081016040528092919081815260200182805461040090610b99565b801561044d5780601f106104225761010080835404028352916020019161044d565b820191906000526020600020905b81548152906001019060200180831161043057829003601f168201915b5050505050905084565b6001818051602081018201805184825260208301602085012081835280955050505050506000915054906101000a900460ff1681565b60008060606001846040516104a29190610ac1565b908152602001604051809103902060009054906101000a900460ff166104fd576040517f08c379a00000000000000000000000000000000000000000000000000000000081526004016104f490610eaf565b60405180910390fd5b6000808560405161050e9190610ac1565b908152602001604051809103902060405180608001604052908160008201805461053790610b99565b80601f016020809104026020016040519081016040528092919081815260200182805461056390610b99565b80156105b05780601f10610585576101008083540402835291602001916105b0565b820191906000526020600020905b81548152906001019060200180831161059357829003601f168201915b505050505081526020016001820160009054906101000a900473ffffffffffffffffffffffffffffffffffffffff1673ffffffffffffffffffffffffffffffffffffffff1673ffffffffffffffffffffffffffffffffffffffff1681526020016002820154815260200160038201805461062990610b99565b80601f016020809104026020016040519081016040528092919081815260200182805461065590610b99565b80156106a25780601f10610677576101008083540402835291602001916106a2565b820191906000526020600020905b81548152906001019060200180831161068557829003601f168201915b5050505050815250509050806020015181604001518260600151935093509350509193909250565b6000604051905090565b600080fd5b600080fd5b600080fd5b600080fd5b6000601f19601f8301169050919050565b7f4e487b7100000000000000000000000000000000000000000000000000000000600052604160045260246000fd5b610731826106e8565b810181811067ffffffffffffffff821117156107505761074f6106f9565b5b80604052505050565b60006107636106ca565b905061076f8282610728565b919050565b600067ffffffffffffffff82111561078f5761078e6106f9565b5b610798826106e8565b9050602081019050919050565b82818337600083830152505050565b60006107c76107c284610774565b610759565b9050828152602081018484840111156107e3576107e26106e3565b5b6107ee8482856107a5565b509392505050565b600082601f83011261080b5761080a6106de565b5b813561081b8482602086016107b4565b91505092915050565b6000806040838503121561083b5761083a6106d4565b5b600083013567ffffffffffffffff811115610859576108586106d9565b5b610865858286016107f6565b925050602083013567ffffffffffffffff811115610886576108856106d9565b5b610892858286016107f6565b9150509250929050565b6000602082840312156108b2576108b16106d4565b5b600082013567ffffffffffffffff8111156108d0576108cf6106d9565b5b6108dc848285016107f6565b91505092915050565b600081519050919050565b600082825260208201905092915050565b60005b8381101561091f578082015181840152602081019050610904565b60008484015250505050565b6000610936826108e5565b61094081856108f0565b9350610950818560208601610901565b610959816106e8565b840191505092915050565b600073ffffffffffffffffffffffffffffffffffffffff82169050919050565b600061098f82610964565b9050919050565b61099f81610984565b82525050565b6000819050919050565b6109b8816109a5565b82525050565b600060808201905081810360008301526109d8818761092b565b90506109e76020830186610996565b6109f460408301856109af565b8181036060830152610a06818461092b565b905095945050505050565b60008115159050919050565b610a2681610a11565b82525050565b6000602082019050610a416000830184610a1d565b92915050565b6000606082019050610a5c6000830186610996565b610a6960208301856109af565b8181036040830152610a7b818461092b565b9050949350505050565b600081905092915050565b6000610a9b826108e5565b610aa58185610a85565b9350610ab5818560208601610901565b80840191505092915050565b6000610acd8284610a90565b915081905092915050565b7f4572726f723a205468697320636f6e74656e742068617320616c72656164792060008201527f6265656e20726567697374657265642e00000000000000000000000000000000602082015250565b6000610b346030836108f0565b9150610b3f82610ad8565b604082019050919050565b60006020820190508181036000830152610b6381610b27565b9050919050565b7f4e487b7100000000000000000000000000000000000000000000000000000000600052602260045260246000fd5b60006002820490506001821680610bb157607f821691505b602082108103610bc457610bc3610b6a565b5b50919050565b60008190508160005260206000209050919050565b60006020601f8301049050919050565b600082821b905092915050565b600060088302610c2c7fffffffffffffffffffffffffffffffffffffffffffffffffffffffffffffffff82610bef565b610c368683610bef565b95508019841693508086168417925050509392505050565b6000819050919050565b6000610c73610c6e610c69846109a5565b610c4e565b6109a5565b9050919050565b6000819050919050565b610c8d83610c58565b610ca1610c9982610c7a565b848454610bfc565b825550505050565b600090565b610cb6610ca9565b610cc1818484610c84565b505050565b5b81811015610ce557610cda600082610cae565b600181019050610cc7565b5050565b601f821115610d2a57610cfb81610bca565b610d0484610bdf565b81016020851015610d13578190505b610d27610d1f85610bdf565b830182610cc6565b50505b505050565b600082821c905092915050565b6000610d4d60001984600802610d2f565b1980831691505092915050565b6000610d668383610d3c565b9150826002028217905092915050565b610d7f826108e5565b67ffffffffffffffff811115610d9857610d976106f9565b5b610da28254610b99565b610dad828285610ce9565b600060209050601f831160018114610de05760008415610dce578287015190505b610dd88582610d5a565b865550610e40565b601f198416610dee86610bca565b60005b82811015610e1657848901518255600182019150602085019450602081019050610df1565b86831015610e335784890151610e2f601f891682610d3c565b8355505b6001600288020188555050505b505050505050565b6000602082019050610e5d60008301846109af565b92915050565b7f4173736574206e6f7420666f756e642e00000000000000000000000000000000600082015250565b6000610e996010836108f0565b9150610ea482610e63565b602082019050919050565b60006020820190508181036000830152610ec881610e8c565b905091905056fea2646970667358221220d7a8208ec8ebb21c8195884642e7bb1aa7729859bd680b037c87be4f511f4b8764736f6c63430008180033",
  "linkReferences": {},
  "deployedLinkReferences": {}
}